S01700006275696C642F697269732F6D61696E2E7372656343
S11300000C947C000C949B000C949B000C949B001F
S11300100C949B000C949B000C949B000C949B00F0
S11300200C949B000C949B000C949B000C949B00E0
S11300300C949B000C947E050C949B000C94DB03A5
S11300400C94BB0F0C94F30F0C94B3040C94BE04E7
S11300500C94C9040C949B000C949B000C949B007E
S11300600C94FC030C949B000C949B000C949B003C
S11300700C949B000C94F7040C949B000C949B0030
S11300800C949B000C949B000C949B000C949B0080
S11300900C949B000C949B000C949B000C949B0070
S11300A00C949B000C949B000C949B000C949B0060
S11300B00C949B000C949B000C949B000C949B0050
S11300C00C949B000C949B000C949B009310C61002
S11300D0181149115F117911001233128F12A312F2
S11300E08B105613641394139713A213FC13631405
S11300F0821400020E060C0411241FBECFEFD1E2BD
S1130100DEBFCDBF12E0A0E0B2E0E8EBF0E300E038
S11301100BBF02C007900D92A031B107D9F713E0CD
S1130120A0E1B2E001C01D92AF3FB107E1F70E9428
S1130130DE140C945B180C9400008FB7F894992784
S113014008958FBF0895282F9FB7F894E82FFF27AD
S1130150EC5CFD4F80818F3F81F4E091F903E2175D
S113016071F40BC02093E70304C0FF27EC5CFD4F40
S113017020832093F90320E007C025E005C0809187
S1130180E7038F3F91F7EECF892F99278FBF822FF7
S1130190992708957FB7F8946091B20020912F02B7
S11301A0309130024091310250913202B99B11C01A
S11301B08091B3009091B200280F311D411D511D53
S11301C02F5F3F4F4F4F5F4F290F311D411D511D71
S11301D004C0260F311D411D511D872F99278FBF44
S11301E0CA01B9010895982F969596959695EEE2D1
S11301F0F2E0E90FF11D877021E030E002C0220F28
S1130200331F8A95E2F78081822399270895982FD6
S1130210969596959695E9E7F3E0E90FF11D8770B9
S113022021E030E002C0220F331F8A95E2F780817B
S11302308223992708958091EA03882319F02FE1F6
S113024070E002C078E027E0622FEFB7F894809165
S11302504C028E7F80934C0280917C00982F9F717A
S1130260829586958695837019F080E090E012C09F
S1130270822F8850863118F081E090E00BC040E076
S113028050E03327892F99272817390711F441E0C3
S113029050E0CA01982F9170990F80914C02817897
S11302A0262F2F71422F440F440F892B842B8093C8
S11302B04C02332720937C00783059F58091E80371
S11302C09091E90321E08638920718F087E090E0E6
S11302D01FC0833C910518F086E090E019C0813678
S11302E0910518F085E090E013C08033910518F073
S11302F084E090E00DC08831910518F083E090E02F
S113030007C00C9718F082E090E002C080E090E013
S1130310782F7770887D872B886D992780937A0052
S11303208E2F99278FBF0895CF93DF93FC01DC01B3
S113033011962181662351F0ED0189819927982F27
S1130340882733272062822B932B09C0ED018981F2
S11303509927982F88273327822B932B8F7D81838E
S1130360892F99278983DF91CF9108951F93982F1F
S11303701FB7F89480911102823099F58091090297
S1130380891779F58091070220E030E08F3F11F45E
S113039021E030E0232BF1F49FEF909309028F3F8B
S11303A019F42FEF30E00DC0282F3327F901EC5A50
S11303B0FD4F8081809307028F3F11F490930802D0
S11303C090832093510281E08093110282E00E9485
S11303D0A30005C08FEF809309021092110221E05F
S11303E001C020E0812F99278FBF90E0213009F4CC
S11303F091E081E09827892F99271F9108958823F8
S113040019F08CB5806402C08CB58F7B8CBD0895C7
S11304100F931F93982F1FB7F89480911202823084
S113042099F580910C02891779F580910A0220E0F0
S113043030E08F3F11F421E030E0232BF1F49FEF03
S113044090930C028F3F19F42FEF30E00DC0282F4A
S11304503327F901ED5FFC4F808180930A028F3FBF
S113046011F490930B0290832093040381E0809312
S1130470120289E00E94A30005C08FEF80930C0252
S11304801092120201E001C000E0812F99278FBF72
S11304901FB7F89480911202882311F40E94FF017F
S11304A0812F99278FBF90E0013009F491E081E01A
S11304B09827892F99271F910F910895882319F060
S11304C08CB5806802C08CB58F778CBD08950F936E
S11304D01F9380E00E94FF010FB7F8941127229A1E
S11304E02398219A8CB580618CBD80E00E945E02C5
S11304F08DB581608DBD8CB5877F8CBD8CB58B7FB0
S11305008CBD8CB58E7F8CBD81E00E94FF010FBF36
S11305101F910F9108958FB7F8942091740330912F
S113052075034091760350917703E0918400F09134
S11305308500B09B08C02F5F3F4F4F4F5F4FE09146
S11305408400F091850099278FBFC901772766271A
S11305509F0144275527622B732B842B952B0895D9
S1130560FC0180A9826080AB08958C960895AC014B
S1130570EFB7F8942091840030918500C901841B61
S1130580950B03968617970720F0B9016D5F7F4F8F
S113059002C0640F751F6115710511F461E070E00C
S11305A061507040709389006093880082E086BB3C
S11305B080916F00826080936F008E2F99278FBF88
S11305C00895FC01828121819927982F8827332758
S11305D0822B932B85FF1FC087749C7C8154984881
S11305E0D1F4878146812FB7F894332760910402B0
S11305F0709105022FBF20E09927982F882755274F
S1130600842B952B8617970709F021E081E0282792
S1130610822F9927089580E090E00895EF92FF9249
S11306200F931F937C018FB7F894992700914E0282
S113063010914F020F5E1E4F10934F0200934E0213
S1130640015111408FBF87E00E94A300C801B70188
S11306500E94EA178A5D9E4F1F910F91FF90EF90C1
S11306600895FC0182A593A50895DF92EF92FF926D
S11306700F931F938FB7F894282F3327D22E90917E
S1130680B3008091B20047B3981711F041FF02C044
S11306902FBF71C080915B028823E1F10E94CA00E0
S11306A0E0902502F0902602009127021091280282
S11306B02091EC033091ED034091EE035091EF0350
S11306C06E197F09800B910B6217730784079507D6
S11306D020F010925B0271E01EC02E0D3F1D401FE2
S11306E0511F80912F0290913002A0913102B0915C
S11306F03202281B390B4A0B5B0B273E310541059F
S1130700510540F4822F223010F070E005C070E0F3
S113071082E002C070E086EE682F61508091B600DE
S113072083FDFCCF8091B200681709F46F5F2091BC
S11307302F02309130024091310250913202DA019D
S1130740C9010196A11DB11D860F911DA11DB11DE9
S113075082179307A407B50710F4622F6095809160
S1130760B60083FDFCCF6093B300DFBE772319F09E
S113077080E00E94A3001F910F91FF90EF90DF9003
S11307800895AFB7F894BB27E1E0E0935B02609370
S113079025027093260280932702909328022093C7
S11307A0EC033093ED034093EE035093EF03AFBF9C
S11307B00E94350308951F920F920FB60F921124D1
S11307C08F938091B0008093B0008091B60081FD3A
S11307D0FCCF8F910F900FBE0F901F9018951F9311
S11307E0182F81E00E94FF011EBD0DB407FEFDCF4E
S11307F08EB599271F9108951F920F920FB60F92ED
S113080011248F929F92AF92BF92CF92DF92EF9278
S1130810FF920F931F932F933F934F935F936F9385
S11308207F938F939F93AF93BF93CF93DF93EF9374
S1130830FF932EB5E0919703F0919803309739F028
S11308408091700390917103E80FF91F20838091C8
S113085070039091710301969093710380937003D8
S113086080E00E945E02C0917003D0917103809178
S11308701D0290911E02C817D90708F046C00091C6
S1130880F0031091F10380909703909098030F2E3A
S1130890FAE0AF2EBB24F02DAC0EBD1E8A159B05CD
S11308A008F45C016401CC0EDD1E7801EC0EFD1E23
S11308B015C00115110519F0F701808101C080E010
S11308C00E94EF038114910411F0F60180832196B4
S11308D00894C11CD11C0894E11CF11CC5010197AA
S11308E0C817D90730F381E00E945E020115110593
S11308F031F00C0F1D1FF80180818EBD01C01EBC9C
S1130900D0937103C093700311C010929803109296
S113091097031092F1031092F00310921E021092AA
S11309201D0210927103109270038EB5FF91EF9126
S1130930DF91CF91BF91AF919F918F917F916F91F3
S11309405F914F913F912F911F910F91FF90EF90E5
S1130950DF90CF90BF90AF909F908F900F900FBE7D
S11309600F901F90189578941F920F920FB60F92C4
S113097011240F900FBE0F901F90189578941F921A
S11309800F920FB60F9211240F900FBE0F901F906D
S1130990189578941F920F920FB60F9211242F93EB
S11309A03F938F939F93AF93BF932FB7F8943327BD
S11309B08091740390917503A0917603B0917703AD
S11309C00196A11DB11D8093740390937503A093A8
S11309D07603B09377032FBFBF91AF919F918F910F
S11309E03F912F910F900FBE0F901F9018951F925B
S11309F00F920FB60F9211242F933F934F935F934F
S1130A006F937F938F939F93AF93BF93EF93FF93D2
S1130A10409178005091790078948FB7F894992791
S1130A2020914C02322F3695317021708FBF2223D2
S1130A3051F580917A00877F80937A0080913B03FF
S1130A40813021F0823009F048C008C0332341F0DE
S1130A5050939B0340939A0382E112C0332319F409
S1130A600E941B013AC010923B038091EA03882341
S1130A70A1F510926402509349024093480280E128
S1130A800E94A3002AC08FB7F89499278FBF2FB76D
S1130A90F894332780917A00582F5770482F40726A
S1130AA0987D942B952B8074977B982B90619F77DE
S1130AB0892F992780937A00887D842B852B8773CF
S1130AC08061992780937A00887D842B852B877B8E
S1130AD08069992780937A002FBFFF91EF91BF918E
S1130AE0AF919F918F917F916F915F914F913F91C2
S1130AF02F910F900FBE0F901F9018951F920F9279
S1130B000FB60F9211242F933F934F935F936F93DC
S1130B107F938F939F93AF93BF93EF93FF938091B2
S1130B20B0008093B0008091B60081FDFCCF80912D
S1130B30B30099270196AA27BB2720912F02309151
S1130B4030024091310250913202280F391F4A1F5E
S1130B505B1F20932F023093300240933102509355
S1130B60320278940E943503FF91EF91BF91AF91C7
S1130B709F918F917F916F915F914F913F912F91B1
S1130B800F900FBE0F901F90189521E02093A303A0
S1130B90209302032091840030918500BC01C90197
S1130BA00E94B70208950F931F93CF93DF93182FDA
S1130BB00FB7F89480911202882311F40E946702FF
S1130BC0802F99278FBF8FB7F894C82FDD272C2F3C
S1130BD080911202882361F481E0809312021093C1
S1130BE0040389E00E94A300CFBF80E090E021C00D
S1130BF0E12FFF27ED5FFC4F80818F3F89F4E09167
S1130C000B02E11789F40CC010930A0204C0FF27F9
S1130C10ED5FFC4F108310930B0280E090E002C064
S1130C2085E090E02FBF05C080910A028F3F79F7DD
S1130C30EBCFDF91CF911F910F9108958FB7F89467
S1130C40282F3327922F80910C02882331F480912E
S1130C501202823011F42FBF13C09FBF8FB7F894D4
S1130C60282F332780911202882369F482E080932D
S1130C70120210920C022FBF0E946702209A289A37
S1130C8081E090E008952FBF80E00E94D30580E0CA
S1130C9090E008951F93CF93DF93809117028823E8
S1130CA019F081E090E051C08FB7F894282F3327D2
S1130CB0122F80911A02882369F581E080931A0229
S1130CC010925C022FBF2FB7F894332780917A00DB
S1130CD0806880937A002FBF8FB7F894C82FDD27E0
S1130CE09C2F80910F02813099F480911A028130F7
S1130CF021F481E10E94A30009C0823049F480916B
S1130D005C0280930F0283E080931A02CFBF1BC062
S1130D109FBF19C080E00E94F300882319F085E08A
S1130D2090E007C080912E02816080932E0280E0C3
S1130D3090E01FBF282F882319F481E080931702C5
S1130D40822F992702C020E0F8CFDF91CF911F9125
S1130D500895EF920F931F93AE2D99E0899FF001B0
S1130D601124E658FC4F40835183628373830483C8
S1130D70158326833783A17080858E7F8A2B8260BA
S1130D80808781E00E94A3001F910F91EF90089546
S1130D902FB7F8943327809347022FBF85E00E9432
S1130DA0A30008959C0180911B02882319F085E01B
S1130DB090E0089530939D0320939C0381E08093F9
S1130DC01B0210923A0385E00E94A30080E090E0A9
S1130DD00895CF93DF93EC018FE38A8780916602B5
S1130DE08F5F809366028B8380912C0290912D02F9
S1130DF0892B11F025E017C088A599A5892B21F02E
S1130E0061E0CE010E949401CE010E94D20699278E
S1130E10282F882341F4D0932D02C0932C021092E2
S1130E20580210925702822F9927DF91CF9108958B
S1130E301F93CF93DF93182FFA01422F2D3118F00F
S1130E4086E090E08AC0DF011196ED01898121815D
S1130E5050E09927982F88273327822B932B877468
S1130E609C7C8154984809F451E0552329F481E489
S1130E70818388E8ED018983435F40832FB7F89429
S1130E80332780910402909105022FBF8087892F18
S1130E90992781872FB7F8943327809106022FBFB3
S1130EA099278483158213876683872F99278783DD
S1130EB08FB7F894282F332780911102882371F477
S1130EC082E080931102109209022FBFCF010E9489
S1130ED0E9069927182F882399F00FC02FBFF093A4
S1130EE05302E09352028FB7F894C82FDD272C2FBA
S1130EF080911102882399F406C080E00E94B60113
S1130F00812F99272AC081E0809311021092510207
S1130F1082E00E94A300CFBF80E090E01EC08091D9
S1130F2054028F3F89F4E0910802EE2369F010C067
S1130F301092070204C0FF27EC5AFD4F1082109252
S1130F40080280E090E002C085E090E02FBF05C079
S1130F50809107028F3F79F7EBCFDF91CF911F91FB
S1130F600895AF92BF92CF92DF92EF92FF920F93C8
S1130F701F93CF93DF935B016C01C0E0D0E0EAE7FD
S1130F80F3E07C2F608561FFE9C0208131814281DB
S1130F905381E480F58006811781D601C501821B47
S1130FA0930BA40BB50B8E159F05A007B10708F48E
S1130FB0D5C060FF03C06D7F608708C02E0D3F1D44
S1130FC0401F511F2083318342835383713009F4BE
S1130FD07FC0713020F0723009F0C6C084C08FB772
S1130FE0F894C82FDD2780911402882389F491E0B6
S1130FF0909314021092D703CFBF809115028823D7
S113100021F48DE00E94A3000EC0909316020BC041
S113101080E00E940701882329F48091790381608C
S113102080937903CFBF80911002882309F09CC07C
S11310308091020290910302019751F48091000281
S1131040909101028093B103892F99278093B00373
S113105080919503909196038093B303892F9927E8
S11310608093B2038FEF8093AA038093AB038AE04B
S11310708093AF038091720390917303892B09F0DD
S113108073C044EA53E0509373034093720381E1C5
S11310908093A40380910D028823B1F010920D0275
S11310A024E06FEF7FEF8AE00E9418079927282F2A
S11310B0882351F081E080930D0210927303109203
S11310C07203222309F050C081E0809310024CC0C7
S11310D080912C0290912D02892B09F445C083E064
S11310E00E94A30041C09FB7F894209114022223C8
S11310F019F421E030E00FC080910E02813019F024
S113110020E030E008C040E050E02150223010F4EC
S113111041E050E09A01892F99278FBF222321F1C2
S11311208FB7F894082F1127902F80910E028130E9
S113113099F480911402813021F48CE00E94A30080
S113114009C0823049F48091D70380930E0283E072
S1131150809314020FBF08C09FBF06C02196399622
S1131160C330D10509F00DCF81E00E94A300DF91C7
S1131170CF911F910F91FF90EF90DF90CF90BF9090
S1131180AF9008951F93CF93DF93182FEB01E82FAF
S1131190FF27EE0FFF1FEE58FC4F118210821092B2
S11311A00D02E0917203F0917303309721F0809166
S11311B0EB0380FF0FC081E080930D0203C08BE03E
S11311C00E94A3001123C1F4C45AD340A9F410927D
S11311D0100212C020812D50332767817727762F84
S11311E0662786819927682B792BAF0183850E9416
S11311F01807882339F3E3CFDF91CF911F91089526
S11312001F93CF93DF93182FC0912C02D0912D02FE
S113121010922D0210922C0280918B038D7F80936B
S11312208B03809157029091580299A788A78A85C9
S11312308F3389F480E00E94B60180910D028823E7
S113124051F460917203709173036C177D0719F464
S1131250412F0E94C208DF91CF911F9108954F92B0
S11312605F926F927F928F929F92AF92BF92CF9232
S1131270DF92EF92FF920F931F93CF93DF932C0192
S113128080911C02882309F04DC18091F2038530BE
S113129009F048C10E941E06882309F443C18091C5
S11312A0D803882309F03EC1E201E096F20180A947
S11312B082FD02C090E003C0F20192A99F70809168
S11312C03C03981781F090933C03289885EC8EBDDD
S11312D00DB407FEFDCF8EB590689EBD0DB407FE1C
S11312E0FDCF8EB5289A42010894811C911CF4010B
S11312F08181F201218140E09927982F88273327A3
S1131300822B932B87749C7C8154984809F441E088
S1131310442301F1289886E88EBD0DB407FEFDCF65
S11313208EB51EBC0DB407FEFDCF8EB5289A992745
S11313308F7190702091650240915502240F312DD8
S1131340311D43E0359527954A95E1F7281739076C
S11313500CF4E8C0289882EC8EBD0DB407FEFDCFD6
S11313608EB589E08EBD0DB407FEFDCF8EB5289AEB
S11313700E948B027B018C01888184FD03C0C0E044
S1131380D0E006C0F20180818550E201C80FD11D72
S1131390289881E88EBD0DB407FEFDCF8EB51EBC26
S11313A00DB407FEFDCF8EB5289A8F71893021F0D8
S11313B087E08093F203B6C08FB7F89499272F9AE9
S11313C020918400309185008FBF2F98289880E663
S11313D08EBDF20190810DB407FEFDCF8EB59EBD8A
S11313E0792F7250773010F4672F01C067E0F40151
S11313F0962F41910DB407FEFDCF8EB54EBD915091
S1131400C1F76150F401E60FF11D6F5F31962E199B
S11314103F092E553F4F3901882477FC8094982C3E
S11314206E0C7F1C801E911E209719F4972F961B1B
S11314301FC088819981AA81BB8186199709A8094F
S1131440B9098B83292F3A2F4B2F55272A839D01C6
S11314504427552729838B2F9927AA27BB278883BD
S1131460E5CF20810DB407FEFDCF31968EB52EBD9C
S11314709150B8F70DB407FEFDCF8EB5289A289881
S113148082EC8EBD0DB407FEFDCF8EB586E08EBD19
S11314900DB407FEFDCF8EB5289A209779F1888187
S11314A0E9802A81AB80332744275527542F432FC3
S11314B0322F22279927AA27BB27B82FAA27992793
S11314C08827FF24002711278701FF24EE248E2973
S11314D09F29A02BB12BBB24CC24DD248A299B2952
S11314E0AC29BD29282B392B4A2B5B2B260D371D04
S11314F0481D591D288339834A835B83C2010E9496
S1131500B002C2010E94B502FC0160827182828233
S1131510938286E08093F20384E080931C0280E04F
S113152090E002C085E090E0DF91CF911F910F9190
S1131530FF90EF90DF90CF90BF90AF909F908F90EF
S11315407F906F905F904F900895AF92BF92CF922B
S1131550DF92EF92FF920F931F93CF93DF938091CB
S1131560D803882309F413C10E941E06882309F4B2
S11315700EC18FB7F8949927C0910003D09101034D
S11315808FBF1092D80328988FE88EBD0DB407FE44
S1131590FDCF8EB51EBC0DB407FEFDCF8EB5289AC7
S11315A0982FA82EBB24A0FE0CC080911C0283306F
S11315B011F0873031F485E08093F20388E0809362
S11315C01C02A2FE5FC080911C02863019F41092A6
S11315D01C0203C0882309F055C0943009F041C0AF
S11315E0289886E88EBD0DB407FEFDCF8EB51EBCCF
S11315F00DB407FEFDCF2EB5289A2F7180915502A8
S1131600982F96959695322F391B830F8093550208
S1131610E0912902F0912A0280A98B7F886080AB37
S113162022AB0E948B026B017C0100912902109174
S11316302A02C8010E94B002C8010E94B502FC013E
S1131640CC19DD092797CE01AA2797FDA095BA2FBB
S11316508C0D9D1DAE1DBF1D80839183A283B3831A
S11316600EC0E0912902F0912A0280A9877F80AB05
S1131670E0912902F0912A0280A98D7F80AB85E058
S113168080931C02A3FE83C080911C02843009F065
S11316904BC085E08093F20310921C0280915F029C
S11316A0833019F410925F0272C0E0913803F09114
S11316B03903828121819927982F88273327822B08
S11316C0932B85FF29C087749C7C8154984821F50D
S11316D0878126819927982F88273327822B932B5C
S11316E08F5F9F4FC9F090E080910203882309F433
S11316F091E0992389F012E01093A30381E0809391
S11317000203809184009091850061EE72E00E9452
S1131710B70210935F023BC010925F021092F30372
S113172080E00E94C80633C0853089F58091F203B9
S1131730873091F4289882EC8EBD0DB407FEFDCF5E
S11317408EB586E08EBD0DB407FEFDCF8EB5289A0A
S113175085E08093F20317C020916502289886E8FB
S11317608EBD0DB407FEFDCF8EB51EBC0DB407FEB5
S1131770FDCF8EB5289A8F71922F96959695891BD9
S1131780280F2093650289E080931C0208C0909181
S11317901C02992309F4E2C2993009F00FC2289877
S11317A080E28EBD0DB407FEFDCF8EB51EBC0DB418
S11317B007FEFDCF8EB5482F5527433008F49EC34E
S11317C0842F99278A970CF099C31EBCE0912902B3
S11317D0F0912A024083542F5250573010F4452F71
S11317E001C047E09F012F5F3F4F942FF90160E054
S11317F070E00DB407FEFDCF8EB51EBC80838191D1
S11318006827062E6295607F6025072E762F6295E5
S11318106F700626669576276727660F660F660F34
S11318206025915031F74150D901A40FB11D4F5F8C
S11318301196E0912902F0912A028181282F332701
S1131840277030702230310509F491E09923B9F002
S113185080915F02823081F48381E0913803F091BA
S113186039039381891741F490E02230310509F05E
S113187091E081E098270EC080E090E00DC08FB722
S1131880F894282F332790E080917803833008F46C
S113189091E02FBF892F9927892B09F42FC3952F06
S11318A0941B18C00DB407FEFDCF8EB51EBC8C93DF
S11318B08D916827062E6295607F6025072E762F0E
S11318C062956F700626669576276727660F660F02
S11318D0660F6025915030F70DB407FEFDCF8EB52D
S11318E01EBC9B012827022E2295207F2025032E33
S11318F0322F22952F700226269532272327220F76
S1131900220F220F20250DB407FEFDCF8EB51EBC7D
S11319102827022E2295207F2025032E322F229560
S11319202F700226269532272327220F220F220FFB
S113193020250DB407FEFDCF8EB5E0912902F0916C
S11319402A0281AB289A85E08093F20310921C024C
S1131950232B09F0FFC1E0902902F0902A025701DD
S11319600894A11CB11CF701818190E0877082303A
S113197009F491E0292F3327122F80915F028230DE
S1131980C9F480916F008D7F80936F0010920203E1
S1131990E0913803F091390380A9222311F081608A
S11319A001C08E7F80AB10925F021092F30380E03F
S11319B00E94C806112309F0FCC0C7010E94E1027D
S11319C08823A9F085E080933D0382E080933E0361
S11319D010923F03F5018281809340038DE393E0ED
S11319E00E942F09882319F483E080935F020091F9
S11319F0840010918500C7010E94E102882311F040
S1131A00045E1C4F10935A02009359028091840083
S1131A1090918500081B190BC801101611066CF46F
S1131A202091F303222331F40E94C50580E88093BA
S1131A30F30303C020682093F303F5018085278115
S1131A409927582F44273327422B532B8091330255
S1131A50282F3327F901EE0FFF1FE752FC4F808137
S1131A609181709199038417950769F4F901EC50F9
S1131A70FC4F8081871709F467C0872F8F5F80939D
S1131A80990380831DC000E010E080E090E0C9ED80
S1131A90D3E0E4EFF3E0DF01682F9C0188819981B2
S1131AA08417950779F420933302909199038C91CC
S1131AB0891709F449C0892F8F5F809399038C9308
S1131AC000E829C08081972F981B091710F4092F6B
S1131AD0122F6F5FC90101961196229631968530B7
S1131AE09105D1F66530B9F410933302A12FBB27C9
S1131AF0FD01EE0FFF1FE752FC4F5183408380919D
S1131B0099038F5F80939903FD01EC50FC4F808310
S1131B10A650BC4F1C9290919903892F8F778F37D1
S1131B2079F40F3768F0E4EFF3E0292F207880810F
S1131B308F6789132083319633E0E93FF307B9F7C0
S1131B4080913302282F3327F5019281A22FBB27DE
S1131B50FD01E650FC4F808180FF07C0FD01E25685
S1131B60FC4F8081981729F102C081608083A256BE
S1131B70BC4F9C93CFB6F894809178038330B0F433
S1131B80E0912B02E80FE33008F0E350FF27EE0F5B
S1131B90FF1FE15EFD4F00811181F182E0828F5FC2
S1131BA08093780386E00E94A30078018C2D992706
S1131BB08FBFF0922A02E0922902C3C0892F81507C
S1131BC0833008F09CC081508230E0F43091F203FD
S1131BD03130C1F420E080910203882309F421E02C
S1131BE0222381F02F9883E08093A3033093020390
S1131BF080918400909185006BE273E00E94B702AB
S1131C0082E068C0933009F042C08091F2038330CF
S1131C1009F097C00E941E068823C9F128988FE80E
S1131C208EBD0DB407FEFDCF8EB51EBC0DB407FEF0
S1131C30FDCF8EB5289A80918100806480938100C5
S1131C4080E286BB80916F00806280936F009091E8
S1131C505002289888EC8EBD0DB407FEFDCF8EB5DA
S1131C6090669EBD0DB407FEFDCF8EB5289A2898C8
S1131C7082EC8EBD0DB407FEFDCF8EB586E08EBD21
S1131C800DB407FEFDCF8EB5289A84E023C0809161
S1131C901C028150823000F58091F2038530E1F41A
S1131CA00E941E068823C1F0289882EC8EBD0DB4D4
S1131CB007FEFDCF8EB583E08EBD0DB407FEFDCFCC
S1131CC08EB5289A80916F008F7D80936F0010925B
S1131CD0D80383E08093F20390911C02913041F485
S1131CE08091F2038330B1F52F9A9093F20325C0CB
S1131CF0923039F58091F203833061F51EC097303C
S1131D0001F50E941E068823E1F090915002289864
S1131D1088EC8EBD0DB407FEFDCF8EB590669EBDDA
S1131D200DB407FEFDCF8EB5289A8091F20385305D
S1131D3021F484E08093F20304C088E080931C02C1
S1131D4004C080911C02883029F410921C0284E0A3
S1131D500E94A30080911C02882331F58091F20334
S1131D608530F9F48091D8038823D9F480915F02F7
S1131D708823B9F48091F303882399F490E0809147
S1131D800203882309F491E0992359F080911B02FE
S1131D90813039F485E00E94A30080911C028823DD
S1131DA019F480E00E94080280910203823009F055
S1131DB098C010920203C090A303F2E0CF1609F476
S1131DC06CC023E0C21609F470C031E0C31609F0F8
S1131DD088C02091590230915A02809184009091D8
S1131DE085004091F303403859F41092F303809135
S1131DF01B02813009F075C085E00E94A30071C008
S1131E008901081B190B47FF03C010161106ECF0DB
S1131E10C0915D02D0915E0280915F028823A9F493
S1131E20CE010E942F099927882351F488A98E7F17
S1131E3088ABC0925F02D0933903C093380329C0A2
S1131E409927F82E882329F102C065E0F62E209107
S1131E50F303822F99278F77019759F42078226012
S1131E602093F30380E198E00E940E030E94C505CD
S1131E7038C027FF0AC0101611063CF480E880938E
S1131E80F303C8010E94C50502C01092F3038F2D0D
S1131E9009C083E08093F30324C010925F02109280
S1131EA0F30380E00E94C8061CC08091F2038230D4
S1131EB019F4C092F20313C080911C02863079F4A5
S1131EC010921C02289881E88EBD0DB407FEFDCF48
S1131ED08EB51EBC0DB407FEFDCF8EB5289A0E94A8
S1131EE0A70F8FB7F894282F332780914D028130A4
S1131EF061F081E080934D022FBF31CB289A85E0B9
S1131F008093F20310921C0225CF10924D022FBF32
S1131F10DF91CF911F910F91FF90EF90DF90CF90C1
S1131F20BF90AF9008958FB7F894282F33278091EE
S1131F304D02815080934D02803811F02FBF0895D7
S1131F4081E080934D022FBF0E94A50A08958FB7A8
S1131F50F894282F332780914D02882329F0806834
S1131F6080934D022FBF089581E080934D022FBFCF
S1131F700E94A50A089578941F920F920FB60F92AB
S1131F8011242F933F934F935F936F937F938F937A
S1131F909F93AF93BF93EF93FF93809184009091AD
S1131FA0850020918600309187008FB7F894992797
S1131FB0309301032093000321E02093D8038FBFC3
S1131FC00E94A70FFF91EF91BF91AF919F918F91C5
S1131FD07F916F915F914F913F912F910F900FBE21
S1131FE00F901F90189578941F920F920FB60F922E
S1131FF011242F933F934F935F936F937F938F930A
S11320009F93AF93BF93EF93FF9380916F008D7F66
S113201080936F0078949FB7F89480910203813085
S113202019F482E080930203892F99278FBF0E94BD
S1132030A70FFF91EF91BF91AF919F918F917F91E6
S11320406F915F914F913F912F910F900FBE0F9021
S11320501F9018951F938FB7F894992720914D02DC
S11320602F5F20934D028FBF80911B02882311F0B4
S113207015E023C080911C028823E1F48091F203CF
S1132080813049F490E080910203882309F491E0BF
S1132090992381F005C0853019F489E090E00CC0E3
S11320A083E080931C020E94A70F84E080931B02AC
S11320B010E003C085E090E0182F0E94930F812F59
S11320C099271F9108952F923F924F925F926F929A
S11320D07F928F929F92AF92BF92CF92DF92EF92B4
S11320E0FF920F931F93CF93DF93CDB7DEB729975A
S11320F00FB6F894DEBF0FBECDBFE82FFF27E33144
S1132100F10508F025C4EA59FF4FEE0FFF1F0590B3
S1132110F491E02D09948091EB03882309F418C409
S113212040E051E0A2C280914A02882361F52091E7
S1132130E3033091E4034091E5035091E603EFB7E4
S1132140F894FF276091250270912602809127025E
S113215090912802E090EC03F090ED030091EE03DF
S11321601091EF036E0D7F1D801F911FEFBF209311
S1132170E3033093E4034093E5035093E6031092A2
S11321804A020E94C1030E94CA003FC00E94CA00C2
S11321905B016C018FB7F894992710925B028FBF93
S11321A02FEF3FEF4FEF5FE760E0EAE7F3E0808572
S11321B081FF1CC080819181A281B3818601750158
S11321C0E81AF90A0A0B1B0BD801C701E480F58051
S11321D006811781E81AF90A0A0B1B0BE216F306AB
S11321E0040715071CF4A801970161E0399603E080
S11321F0E539F007E1F6662309F4AAC312161306BB
S1132200140615062CF0C601B5010E94B107A0C33F
S11322102093E3033093E4034093E5035093E603F0
S113222081E080934A02C601B5010E94C10390C3B4
S11322302FB7F8943327809151028093090282E0EA
S1132240809311022FBF80910902882309F080C373
S113225080915202909153020E94E906082F11279F
S1132260002309F475C380E00E94B6012091520254
S11322703091530280910D02882309F069C3609163
S11322807203709173036217730709F061C3402FDF
S113229018C2E0912C02F0912D0280A591A5892B02
S11322A021F061E0CF010E94940180912C02909171
S11322B02D020E94D206882309F44AC39BC0809150
S11322C01B0210921B02843059F40E94CA00AB0115
S11322D0BC01EE2400EA1FE020E030E080E00FC300
S11322E0853009F435C3863009F432C380931B0268
S11322F02FC38FB7F8949927109147028FBF80910D
S11323001B02823011F4112339F080913A038F5F5C
S113231080933A03863020F083E080931B023CC014
S11323208FB7F894992720914D022F5F20934D0287
S11323308FBF20919C0330919D038091F3038823E8
S1132340D1F490E080910203882309F491E0992369
S113235091F030935E0220935D0281E08093F30359
S113236086EB93E20E940E030E94C50582E08093EF
S11323701B0210E00AC080913A03853011F483E017
S113238001C081E080931B0215E00E94930F8091AD
S11323901B02833009F0DCC210921B02E0919C0303
S11323A0F0919D0320915702309158022F5F3F4FC7
S11323B0309358022093570280A980FF02C080E026
S11323C01CC0E0912C02F0912D0280A591A5281744
S11323D0390790F4CF010E9431038C01892B51F00D
S11323E00E94CA00AB01BC0122273327E1E0EE2E94
S11323F081E085C283E0A3C1812F0E940009A8C2A5
S11324008FB7F894282F332780917803882309F411
S113241029C1E0912B02FF27EE0FFF1FE15EFD4F64
S1132420A081B1812FBF8FB7F89499278FBF9FB731
S1132430F89480912B02E82FFF27EE0FFF1FE15E37
S1132440FD4FB183A0838F5F80932B02833010F004
S113245010922B0280917803815080937803892F06
S113246099278FBFCDCFFFB7F983F89420906002EE
S11324703090610240906202509063026624772497
S113248088248EE4A82E03E8B02ECC24DD24EE2488
S1132490FF2400E010E0222D332D442D552D662D10
S11324A0772D882D90E00E9469162A833B834C8304
S11324B05D836E837F8388879987822E932EA42ED3
S11324C0B52E2401350100E20E946717A22EB32E17
S11324D0C42ED52EA301920156954795379527957D
S11324E02A0D3B1D4C1D5D1D57FF05C05F772F5FF7
S11324F03F4F4F4F5F4F20936002309361024093F0
S1132500620250936302E9808E2D99278FBF8FB7A3
S1132510F894992730934F0220934E02D2C18FB77B
S1132520F894992710929803109297031092F1034C
S11325301092F00310921E0210921D021092710369
S113254010927003BEC12FB7F8943327809104030F
S113255080930C0282E0809312022FBF80910C02C0
S1132560882309F0F5C1209A289A8091F2038823E0
S113257009F075C08EEF91E0019701960197E1F79C
S113258016982F9886E090E0019701960197E1F75D
S1132590169A289883EC8EBD0DB407FEFDCF8EB538
S11325A01EBC0DB407FEFDCF8EB5289A289882EC88
S11325B08EBD0DB407FEFDCF8EB588E08EBD0DB483
S11325C007FEFDCF8EB5289A8EEF91E00197019614
S11325D00197E1F728988EEC8EBD0DB407FEFDCF70
S11325E08EB58DE48EBD0DB407FEFDCF8EB5289A51
S11325F0289889EC8EBD0DB407FEFDCF8EB587EC0F
S11326008EBD0DB407FEFDCF8EB5289A289885ECB3
S11326108EBD0DB407FEFDCF8EB580E88EBD0DB422
S113262007FEFDCF8EB5289A10923C038BE0809371
S11326305002289888EC8EBD0DB407FEFDCF8EB5F0
S11326408BE68EBD0DB407FEFDCF8EB5289A2F9A6A
S113265081E08093F20380E00E94080279C10E9425
S1132660A70F76C12FBF74C1550F9091EB03852F2F
S11326708923C1F0E42FFF27EE0FFF1FEE58FC4F14
S11326802081318111821082852F80959823909327
S1132690EB03442339F4245A334009F056C1109211
S11326A0100253C14F5F4830F8F252C180910D02BD
S11326B0E82FFF27EE0FFF1FEE58FC4F608171815A
S11326C041E00E94C20844C12FB7F8943327809197
S11326D0D70380930E0283E0809314022FBF1091DE
S11326E00E028FB7F894282F3327922F80910F0270
S11326F0882359F480911A02833039F42FBF8091D2
S11327001802882309F024C102C09FBF21C182E0BE
S113271080933B031092EA030E941B0181E08093A3
S1132720180210934B0214C10E944A0611C18091F1
S11327301702813009F00CC175986D988FE00E94E2
S1132740A30006C18FB7F894C82E80911A02833073
S113275009F041C080910F028823E9F580912E028F
S1132760882309F0DDC0D1C0ED2DE695E695E69508
S1132770FF274D2D5527E25DFD4F9A0127703070DC
S113278081E090E002C0880F991F2A95E2F78095B6
S11327902081282320830093190212C00F5F1F4F4A
S11327A00130110511F400E010E0D02E802F0E94BA
S11327B0F3008823C9F60E151F0581F74FEF50E08B
S11327C040935C028FEF80930F0281E080931A02A2
S11327D081E10E94A300CFBE1092170280911602DD
S11327E0813011F40E944A068FB7F8949927109209
S11327F016021092150265C010921802A0904802A9
S1132800B09049024090640280904B028FB7F894D4
S1132810C82E80911402833009F041C080910E02C9
S11328208815E9F580917903882309F088C07EC072
S1132830ED2DE695E695E695FF274D2D5527E758AE
S1132840FC4F9A012770307081E090E002C0880F3D
S1132850991F2A95E2F780952081282320830093ED
S1132860130212C00F5F1F4F0130110511F400E075
S113287010E0D02E802F0E9407018823C9F60E1580
S11328801F0581F74FEF50E04093D7038FEF8093FC
S11328900E0281E0809314028CE00E94A300CFBE5C
S11328A0882009F055C0442009F052C0B092960324
S11328B0A09295038FB7F894992722B131E023278A
S11328C022B98FBF45C02FB7F894332780915C029B
S11328D080930F0283E080931A022FBF80910F022E
S11328E08823B1F56D9A759A0E94CA00AB01BC01A8
S11328F0E1E0EE2E0AE010E020E030E082E00E9409
S1132900A90626C010923B0323C081E080930F02E6
S113291010921A0280917A008F7780937A005BCFAD
S113292080911902E82EFF24870138CF81E080933B
S11329300E0210921402809315028EE0AECF8091A5
S11329401302E82EFF2487018DCF550F41E08DCE71
S113295029960FB6F894DEBF0FBECDBFDF91CF919D
S11329601F910F91FF90EF90DF90CF90BF90AF90A9
S11329709F908F907F906F905F904F903F902F909B
S113298008958091E7038F3FB1F0282F3327F90191
S1132990EC5CFD4F80818093E7038F3F11F48093BB
S11329A0F9038FEF80832F3F31F0822F0E94631051
S11329B081E090E0089580E090E008951F931FB7B0
S11329C0F89443E150E06FEF70E084E392E00E94FA
S11329D054188FEF8093E7038093F90356985E9819
S11329E054985C9880916F008F7D80936F00209A3B
S11329F0289A279A2F980E9A169A85E093E0909336
S1132A002A0280932902109265028AE58093550276
S1132A1081E08093810080E28093B60083E080931C
S1132A20B10080918400909185004AE72091840050
S1132A30309185002817390708F44150442311F0D8
S1132A40C901F4CF9091B2008091B2008917E1F3EB
S1132A5020918400309185009091B2008091B20061
S1132A608917E1F38091840090918500821B930B78
S1132A704096F5E096958795FA95E1F79093E903EA
S1132A808093E8031092B1008091B100809381009B
S1132A90809181008093B6001092B200109285005C
S1132AA0109284008FEF87BB87B386BB8091B600FA
S1132AB08571E1F70A9A099A089A129A119A109A5A
S1132AC018B88FEF87B90C98149810927A00109266
S1132AD085001092840080916F00816080936F0064
S1132AE080918100887F82608093810081E085BF2E
S1132AF00E94C1148823E1F710922E0210927903E8
S1132B008FEF8093030380E00E94D305209100029D
S1132B10309101022F5F3F4FC901AA27BB27809341
S1132B20600290936102A0936202B093630287E60D
S1132B3092E09093200280931F02C3969093220206
S1132B40809321028DEC92E09093240280932302DF
S1132B508FEF9FEF9093DA038093D9039093DC0374
S1132B608093DB039093DE038093DD039093E00373
S1132B708093DF039093E2038093E103809100024A
S1132B808295807F809366028FEF809354028091B8
S1132B90B60080628093B6008091B60081FDFCCFC0
S1132BA082E08093B0008091B60080FDFCCF83E08A
S1132BB08093B1008091B60083FDFCCF86EE8093B4
S1132BC0B300809170008260809370000E9435038E
S1132BD00E94C1148823E1F7812F99278FBF78942D
S1132BE00E942A108FB7F894482F552757C0809118
S1132BF07000992783709070892B19F4E5E0F0E058
S1132C0014C08091B6008A71E1F78091B30090916D
S1132C10B200891B8C3038F08091B200853F18F4E3
S1132C20E3E0F0E002C0E2E0F0E080916E00867044
S1132C3009F580916F008E72E9F4809171008E72B3
S1132C40C9F40CB407FC16C08091C100807E91F4D5
S1132C508091C900807E71F48091BC0082FD0AC01D
S1132C6080917A0087FF03C081E090E005C085E091
S1132C7090E002C080E090E023B78E1708F4E82FBC
S1132C80FF27EE50FF4FE491207F2160E22BE3BF4A
S1132C9078948895F89483B78E7F83BF8091E703F7
S1132CA08F3F09F4A4CF282F3327F901EC5CFD4FA3
S1132CB080818093E7038F3F11F48093F9038FEFB2
S1132CC080832F3F09F493CF4FBF822F0E9463105C
S1132CD089CFACE2B0E0EFE6F6E10C941D18222EA9
S1132CE0332E442E552E662E772E882E992EFE01D5
S1132CF03196A8E01192AA95E9F729823A824B828B
S1132D005C826D827E828F829886FE013996B8E05D
S1132D101192BA95E9F7A986BA86CB86DC86ED8648
S1132D20FE860F87188B89819A81AB81BC8189A724
S1132D309AA7ABA7BCA77C018D018FEF9FEFA0E002
S1132D40B0E0E822F9220A231B2389A59AA5ABA5A2
S1132D50BCA51D014424552489859A85AB85BC8571
S1132D608DA39EA3AFA3B8A75C016D018FEF9FEF66
S1132D70A0E0B0E0A822B922CA22DB228DA19EA144
S1132D80AFA1B8A53D0188249924C801B701A601C3
S1132D9095010E94FE1769A37AA38BA39CA3C80183
S1132DA0B701A40193010E94FE177B018C01C201AB
S1132DB0B101A60195010E94FE175B016C01C201DD
S1132DC0B101A40193010E94FE173B014C01EA0CDE
S1132DD0FB1C0C1D1D1D89A19AA1ABA1BCA19D01C9
S1132DE0442755272E0D3F1D401F511F2A153B0513
S1132DF04C055D0540F480E090E0A1E0B0E0680E91
S1132E00791E8A1E9B1ECA01AA27BB27860D971D01
S1132E10A81DB91D8D8F9E8FAF8FB8A3A90133272D
S1132E20222789A19AA1ABA1BCA1A070B070280FE0
S1132E30391F4A1F5B1F298F3A8F4B8F5C8FA98CD8
S1132E40BA8CCB8CDC8CED8CFE8C0F8D18A1FE0122
S1132E50719698E011929A95E9F7ED8AFE8A0F8BA4
S1132E60188F2D813E814F8158856DA17EA18FA140
S1132E7098A50E94FE173B014C012D853E854F8588
S1132E80588969A57AA58BA59CA50E94FE172D8952
S1132E903E894F89588D260F371F481F591F260D0D
S1132EA0371D481D591D2D8B3E8B4F8B588F6D88B8
S1132EB07E888F88988C2A2D3B2D4C2D5D2D662D78
S1132EC0772D882D992DE2E1AC960C943918A0E168
S1132ED0B0E0EDE6F7E10C941D18222E332E442EBB
S1132EE0552E662E772E882E992E002309F466C05F
S1132EF088E0FE01319611928A95E9F729833A8395
S1132F004B835C836D837E838F829887E0E2E01B32
S1132F101E16CCF52D813E814F815885602F772771
S1132F2067FD7095DA01C901062E04C0B695A79510
S1132F30979587950A94D2F78D879E87AF87B88B2C
S1132F4004C0220F331F441F551FEA95D2F789810D
S1132F509A81AB81BC8104C0B695A7959795879556
S1132F606A95D2F7282B392B4A2B5B2B29873A8772
S1132F704B875C8729843A844B845C846D847E848B
S1132F808F8498881BC01D861E861F86188A2E2F44
S1132F90332727FD3095309521953F4F8D819E81B4
S1132FA0AF81B88504C0B695A795979587952A955E
S1132FB0D2F789879A87AB87BC87DCCF222D332D44
S1132FC0442D552D662D772D882D992DE2E160969F
S1132FD00C943918AA1BBB1B51E107C0AA1FBB1FC5
S1132FE0A617B70710F0A61BB70B881F991F5A9591
S1132FF0A9F780959095BC01CD010895629FD001F9
S1133000739FF001829FE00DF11D649FE00DF11D9F
S1133010929FF00D839FF00D749FF00D659FF00D4E
S11330209927729FB00DE11DF91F639FB00DE11D3B
S1133030F91FBD01CF01112408952F923F924F92A1
S11330405F926F927F928F929F92AF92BF92CF9234
S1133050DF92EF92FF920F931F93CF93DF93CDB73D
S1133060DEB7CA1BDB0B0FB6F894DEBF0FBECDBFB5
S113307009942A88398848885F846E847D848C8486
S11330809B84AA84B984C884DF80EE80FD800C818F
S11330901B81AA81B981CE0FD11D0FB6F894DEBF72
S11330A00FBECDBFED010895DC0101C06D93415009
S10B30B05040E0F70895FFCF42
S11330B801000100010022FFFFFFFFFFFF010101E2
S9030000FC
